:100000000C94300A0C94580A0C94580A0C94580A10
:100010000C94580A0C94580A0C94580A0C94580AD8
:100020000C94580A0C94580A0C9477110C94E6110D
:100030000C94580A0C94580A0C94580A0C94580AB8
:100040000C94580A0C94580A0C94580A0C94580AA8
:100050000C94580A0C94580A0C94580A0C941814CE
:100060000C94580A0C94580A0C94580A0C94580A88
:100070000C94580A0C94580A0C94580A0C94580A78
:100080000C94580A0C94580A0C94580A0C94580A68
:100090000C94580A0C94580A0C94580A0C94580A58
:1000A0000C94580A0C94580A0C94580A4995A5497E
:1000B0000179858549017985857901F92525D90158
:1000C000FD95958501014901010101010101010130
:1000D0000101010101010101010101010101010110
:1000E0000101010101010101010101010101010100
:1000F00001010101010101010101010101010101F0
:100100000101010101010101010105FD0505018553
:10011000FD858501F905F905F901FD959585010133
:10012000490101010101010101010101000000007B
:10013000003E5B4F5B3E3E6B4F6B3E1C3E7C3E1C6D
:10014000183C7E3C181C577D571C1C5E7F5E1C00B3
:10015000183C1800FFE7C3E7FF0018241800FFE76A
:10016000DBE7FF30483A060E2629792926407F052D
:100170000507407F05253F5A3CE73C5A7F3E1C1C43
:1001800008081C1C3E7F14227F22145F5F005F5F03
:1001900006097F017F006689956A606060606094EF
:1001A000A2FFA29408047E040810207E20100808F4
:1001B0002A1C08081C2A08081E101010100C1E0CFF
:1001C0001E0C30383E3830060E3E0E060000000091
:1001D0000000005F00000007000700147F147F1478
:1001E000242A7F2A122313086462364956205000BD
:1001F00008070300001C2241000041221C002A1CA9
:100200007F1C2A08083E0808008070300008080893
:100210000808000060600020100804023E514945B3
:100220003E00427F400072494949462141494D33D1
:100230001814127F1027454545393C4A4949314138
:10024000211109073649494936464949291E000006
:10025000140000004034000000081422411414145B
:100260001414004122140802015909063E415D5947
:100270004E7C1211127C7F494949363E4141412250
:100280007F4141413E7F494949417F090909013E7A
:10029000414151737F0808087F00417F41002040A1
:1002A000413F017F081422417F404040407F021CB3
:1002B000027F7F0408107F3E4141413E7F090909CA
:1002C000063E4151215E7F09192946264949493296
:1002D00003017F01033F4040403F1F2040201F3F5C
:1002E0004038403F631408146303047804036159E1
:1002F000494D43007F414141020408102000414123
:10030000417F0402010204404040404000030708CE
:100310000020545478407F284444383844444428CA
:10032000384444287F385454541800087E09021871
:10033000A4A49C787F0804047800447D40002040F9
:10034000403D007F1028440000417F40007C04783D
:1003500004787C080404783844444438FC18242485
:100360001818242418FC7C08040408485454542405
:1003700004043F44243C4040207C1C2040201C3C82
:100380004030403C44281028444C9090907C446479
:10039000544C44000836410000007700000041360C
:1003A000080002010204023C2623263C1EA1A16192
:1003B000123A4040207A38545455592155557941C4
:1003C0002154547841215554784020545579400C9B
:1003D0001E5272123955555559395454545939557C
:1003E0005454580000457C410002457D42000145BF
:1003F0007C40F0292429F0F0282528F07C5455452C
:10040000002054547C547C0A097F493249494932BE
:100410003248484832324A4848303A4141217A3AD3
:1004200042402078009DA0A07D39444444393D409D
:1004300040403D3C24FF2424487E4943662B2FFC4A
:100440002F2BFF0929F620C0887E090320545479F8
:10045000410000447D413048484A32384040227AC9
:10046000007A0A0A727D0D19317D2629292F282646
:100470002929292630484D4020380808080808084E
:100480000808382F10C8ACBA2F102834FA00007BA7
:10049000000008142A142222142A140895002200AD
:1004A00095AA005500AAAA55AA55AA000000FF0067
:1004B000101010FF00141414FF001010FF00FF10A4
:1004C00010F010F0141414FC001414F700FF0000D6
:1004D000FF00FF1414F404FC141417101F10101F55
:1004E000101F1414141F00101010F0000000001F43
:1004F000101010101F10101010F010000000FF104E
:100500001010101010101010FF10000000FF140049
:1005100000FF00FF00001F10170000FC04F414147B
:100520001710171414F404F40000FF00F714141447
:1005300014141414F700F7141414171410101F10C7
:100540001F141414F4141010F010F000001F101FEA
:100550000000001F14000000FC140000F010F01058
:1005600010FF10FF141414FF141010101F000000CF
:1005700000F010FFFFFFFFFFF0F0F0F0F0FFFFFFD3
:100580000000000000FFFF0F0F0F0F0F384444382A
:10059000447C2A2A3E147E02020606027E027E0265
:1005A00063554941633844443C04407E201E200684
:1005B000027E020299A5E7A5991C2A492A1C4C72C1
:1005C00001724C304A4D4D303048784830BC625A48
:1005D000463D3E494949007E0101017E2A2A2A2AD8
:1005E0002A44445F444440514A444040444A5140B4
:1005F0000000FF0103E080FF000008086B6B083675
:1006000012362436060F090F0600001818000000E5
:100610001010003040FF0101001F01011E00191DD4
:100620001712003C3C3C3C0000000000080B00029C
:10063000020200000904000001020200000524007B
:10064000100105240101010424020605240600010D
:100650000705810310004009040100020A000000A0
:100660000705020240000007058302400000040362
:10067000090412010002EF0201404123368000010B
:100680000102030141726475696E6F204C4C430096
:1006900041726475626F7900D5F08D14A1C881CF65
:1006A000D9F1AF20000000000000000000000000B1
:1006B000000000000000000000000000000000003A
:1006C000000000000000000000000000000000002A
:1006D000000000000080808080BE8989BE80BEA5A9
:1006E000A59A809EA1A19E809FA0A09F8081BF818E
:1006F0008180808080000000000000000000000079
:1007000000000000000000000000000000000000E9
:1007100000000000000000000000000000000000D9
:100720000000000000000000000000000004FC04C5
:100730000400FC1010FC00FC94948400000000787D
:1007400084844800FC80808000F82424F8004894C9
:10075000A448004894A4480084FC848400788484DD
:1007600048000000004894A44800F80404F800F889
:100770002424F800FC1028C400FC94948400000099
:1007800000F824241800FC80808000F82424F8005D
:100790004C90907C00FC94948400FC84847800004D
:1007A00000000000000000000000000000788484C9
:1007B0007800F80404F80000000004FC040400FCC5
:1007C0001010FC00FC949484000000004894A4489D
:1007D000007C80807C00F82424D800FC14140400E1
:1007E000F82424F8007884844800FC949484000061
:1007F00000007884847800FC14140400000000F8E1
:100800002424F800000000FC1028C400FC80808034
:1008100000FC9494840084FC848400F80404F800B0
:1008200000000000000000000000000000F89494A8
:100830006800788484780004FC04040004FC040448
:1008400000FC80808000FC94948400800000000004
:100850000000000000000000000000000000000098
:100860000000000000000000000000000000000088
:100870000000000000000000000000000000000078
:100880000000000000000000000000000000000068
:100890000000000000000000000000000000000058
:1008A0000000000000000000000000000000000048
:1008B0000000000000000000000000000000000038
:1008C0000000000000000000000000000000000028
:1008D0000000000000000000000000000000000018
:1008E0000000000000000000000000000000000008
:1008F00000000000000000000000000000000000F8
:1009000000000000000000000000000000000000E7
:1009100000000000000000000000000000000000D7
:1009200000000000000000000000000000F8242487
:10093000F8000000007884A46800F82424F800F887
:1009400004F804F800FC94948400000000F89494E7
:1009500068004C90907C000000007884A46800F847
:1009600024649800FC949484004C90907C004894FB
:10097000A448007884847800F80404F8000000009B
:10098000F824241800788484780004FC040400040B
:10099000FC040400FC94948400F82424D800000093
:1009A000000000000000000000000000007884004B
:1009B0007884A46800FC1028C400F8242418007867
:1009C0008484780004FC04040004FC040400FC9407
:1009D000948400F82424D800800078848448007827
:1009E00084847800F804F804F8008478000000009B
:1009F00000000000000000000000000000000000F7
:100A000000000000000000000000000000000000E6
:100A100000000000000000000000000000000000D6
:100A200000000000000000000000000000000000C6
:100A300000000000000000000000000000000000B6
:100A400000000000000000000000000000000000A6
:100A50000000000000000000000000000000000096
:100A60000000000000000000000000000000000086
:100A70000000000000000000000000000000000076
:100A80000000000000000000000000000000000066
:100A90000000000000000000000000000000000056
:100AA0000000000000000000000000000000000046
:100AB0000000000000000000000000000000000036
:100AC00000000000000000000000000000808080A6
:100AD000809EA1A192809EA1A19E80BE8181BE80A8
:100AE00081BF818180BE8989B6809EA1A19E80BF81
:100AF000A0A0A08092A5A9928080808080000000A4
:100B000000000000000000000000000000000000E5
:100B100000000000000000000000000000000000D5
:100B2000000000000000000000000000001018FCA1
:100B30001810002060FC60200010387C101010009D
:100B40001010107C381000004800000078848448A1
:100B500000FC1010FC00F82424F800F80404F8004D
:100B60007884A46800FC94948400000000FC8484D1
:100B7000780084FC848400F82424D800FC949484B5
:100B800000788484480004FC04040084FC8484000D
:100B90007884847800F80404F80000000000000065
:100BA0000000000000000000000000000000000045
:100BB0000000000000000000000000000000000035
:100BC00000F82424F800000048000000F82424184D
:100BD00000F82424F8007C80807C004894A448001D
:100BE000FC9494840000C0300C00007C80807C0069
:100BF000F80404F800F824241800F82424F8007CF1
:100C000080807C004894A44800FC949484000000F8
:100C100000000000000000000000000000000000D4
:100C200000000000000000000000000000000000C4
:100C30000000804040800080404080008040408034
:100C400000C000000000000080000000C0404040E4
:100C500000804040800040C04040000000008040D4
:100C600040800080404080008040408000C0000004
:100C70000000C040404000804040800000000080F4
:100C800040408000C040404000C0404040008040A4
:100C90004080008040408000C04040400000000094
:100CA0000000000000000000000000000000000044
:100CB000000007080A060007080807000F02020FD5
:100CC000000F080808000000040000004FC9494850
:100CD000004FC2424F00804F80408000C0404F42D2
:100CE000020F000F824241800FC20201C00F8848EC
:100CF00048800F8949488004090A04804040800FD9
:100D0000C90906C00F49C948400F01010000070882
:100D10000807000F02020D000F090908000000007B
:100D200000000000000000000000000000000000C3
:100D300000000000000000000000000000000000B3
:100D4000000000000000000000000000000F000094
:100D500000080F0808000F000F000F000F09090816
:100D6000000000000F02020D0007080807000F0036
:100D7000000F0004090A040000000007080807002B
:100D80000708080700000F0000000800000000002E
:100D90000000000000000000000000000000000053
:100DA0000000000000000000000000000000000043
:100DB00000000000000000FC1028C400FC94948493
:100DC000004C90907C000000480000007878787813
:100DD000000000101010100000FC14140400F8248F
:100DE00024D8007884847800F80404F80004FC0413
:100DF00004000000004894A4480084FC848400FCA3
:100E000084847800FC9494840000000000000000BA
:100E100000000000000000000000000000000000D2
:100E200000000000000000000000000000000000C2
:100E300000000000000000000000000000000000B2
:100E40000000000000000000000000007848487822
:100E5000000000101010100000F894946800F824AE
:100E600024F8007884844800FC1028C400000000A6
:100E70004894A4480084FC848400FC84847800FCAA
:100E800094948400000000000000000000000000B6
:100E90000000000000000000000000000000000052
:100EA0000000000000FF0101010101010101010139
:100EB0007985A56901F92525F901F905F905F901F2
:100EC000FD9595850101017985857901FD81413D7A
:100ED00001FD95958501F92525D901010101010142
:100EE00001010101FFFF0000C02020C000024202FA
:100EF00002C22222C202E202020202C22222C20272
:100F0000628282E202020202C22222C202C22222C1
:100F10004202C22222C20222E2222202C22020C0B7
:100F200000000000FFFF00008741418700008200B1
:100F30000087414180008744448400874141870005
:100F4000C244444300C04040470181474083048578
:100F500043408701C10700C407844440870040C75D
:100F600040400000FFFF80808F89898680808480D8
:100F70008084898A848087888884808F82828D801B
:100F80008F898988808F898988808F80808F8084ED
:100F9000898A84808F81818F808788888780808FED
:100FA00080808080FFFF0101010101C12121C10179
:100FB000C12121C101E10101E10141A1214101E181
:100FC000A1A12101E12121C10101010101FFFF8056
:100FD00080808080878181808087818187808384F1
:100FE00084838082848582808784848480878484CB
:100FF000838080808080FF0000000000000000FFF0
:10100000FFFFFF00000000000000000000000000E3
:1010100000000000000000000000000000000000D0
:1010200000000000000000000000000000000000C0
:1010300000000000000000000000000000000000B0
:1010400000000000000000000000000000000000A0
:101050000000000000000000000000000000000090
:101060000000000000000000000000000000000080
:10107000000000000000000000000000000000FF71
:10108000FFFFFF0000000000000000000000000063
:10109000FCFC78F0C0800000000000000000FCFCB8
:1010A000000000000000FCFC000000000000FCFC50
:1010B0000C0C0C0C0C0C0C0C0C0C0C0000000000AC
:1010C000FCFC000000000000000000000000000028
:1010D00000040C3C78F0E0800000000000FCFC0004
:1010E0000000000000000000000000000000000000
:1010F0000000000000000000000000000000000FE1
:101100000F0F0F00000000000000000000000000B2
:10111000FFFF000003071E3CF0E080000000FFFF1F
:10112000000000000000FFFF000000000000FFFFC3
:1011300030303030303030303000000000000000FF
:10114000FFFF0000000000000000000000000000A1
:10115000000000000000C1E3FF3E1C38F0FFFF006C
:10116000000000000000000000000000000000007F
:10117000000000000000000000000000000000006F
:10118000000000000000000000000000000000005F
:10119000FFFF0000000000000001070F3C78FFFF88
:1011A000000000000000FFFF000000000000FFFF43
:1011B000C0C0C0C0C0C0C0C0C0C0C00000000000EF
:1011C000FFFFC0C0C0C0C0C0C0C0C0C0C0000000E1
:1011D00080C0F0F83E1F07030000000000FFFF0082
:1011E00000000000000000000000000000000000FF
:1011F00000000000000000000000000000000000EF
:1012000000000000000000000000000000000000DE
:1012100000000000000000000000000000000000CE
:1012200000000000000000000000000000000000BE
:1012300000000000000000000000000000000000AE
:10124000000000000000000000000000000000009E
:10125000000000000000000000000000000000008E
:10126000000000000000000000000000000000E09E
:101270002020E0000000000000000000000000004E
:101280000000000000000000C02020C000E00000BE
:101290000000C02020C000608080E000000000004E
:1012A00000C020204000C02020C000C02020C0007E
:1012B00020E0202000C02020C000C02020C000E08E
:1012C0000000000040A02040000000000000C020FE
:1012D00020C000C0A0A04000C02020C000E000004E
:1012E000E00020E0202000000000000000000001DD
:1012F00001010100000000000000000000000000EB
:1013000000000000000000000701010000070404C5
:1013100004000701010700020404030000000000AC
:101320000003040402000304040300070000070094
:101330000007000000070101060003040403000782
:10134000040404000204050200000000000007017C
:10135000010700070404030003040403000304045A
:10136000030000070000000000000000000000FF74
:101370009999FF000000000000000000000000003C
:10138000000000000000000000000000000000005D
:10139000000000000000000000000000000000004D
:1013A000000000000000000000000000000000003D
:1013B000000000000000000000000000000000002D
:1013C000000000000000000000000000000000001D
:1013D000000000000000000000000000000000000D
:1013E0000000000000000000000000FF9999FF0FBE
:1013F00009090F000000003C524A3C0000000000B8
:101400000000447E4000000000000064524A440096
:10141000000000000024424A340000000000000EDA
:1014200008087E0000000000002E4A4A320000003A
:101430000000003C4A4A3000000000000006621232
:101440000E000000000000344A4A34000000000092
:10145000000C12127C00000000000000AB144219C6
:1014600011241FBECFEFDAE0DEBFCDBF11E0A0E058
:10147000B1E0E8E9F9E302C005900D92A036B107AA
:10148000D9F727E0A0E6B1E001C01D92A935B20767
:10149000E1F71AE0CFE2DAE004C02197FE010E94F2
:1014A000C21ACE32D107C9F70E94FC140C94BF1C9B
:1014B0000C940000480F592F511D1416150684F581
:1014C000803891056CF597FF02C090E080E04138CC
:1014D000510514F040E850E0481BFB01E770FF277E
:1014E00021E001C0220FEA95EAF777FF02C0695FA9
:1014F0007F4FFB0133E0F595E7953A95E1F7F695D7
:10150000FE2FEE27F795E795E80FF91FEC52FD4FF8
:10151000415030F08191DF011197822B8C93F8CFED
:1015200008952F923F924F925F926F927F928F9287
:101530009F92AF92BF92CF92DF92EF92FF920F9362
:101540001F93CF93DF9330E0F901E80FF91F1E16C8
:101550001F060CF06CC0803891050CF068C0A02FFD
:10156000A695A695A695B0E0077009F011964B01D7
:10157000E7E08E229924481B590B2B0173E0559408
:1015800047947A95E1F710E000E0A017B10709F45D
:101590004EC07201E00EF11EF8E0EF16F1040CF0FF
:1015A00046C037017694762C66247794679453016D
:1015B000A80EB91E60E8660E711C680E791EE50162
:1015C000CC52DD4FBC0177FD21C01B01240E351E1E
:1015D000F101C490082C01C0CC0C0A94EAF7D88021
:1015E000CD28C8828114910489F0F7E0EF16F10448
:1015F00069F0F101D490FE01EA19FB09E60DF71D2F
:10160000DD1CDD24DD1CC080DC28D0826F5F7F4FB5
:101610002196FB01E81BF90BE217F3071CF4603875
:10162000710589F60F5F1F4F420F531FAECFDF9139
:10163000CF911F910F91FF90EF90DF90CF90BF90CF
:10164000AF909F908F907F906F905F904F903F9062
:101650002F900895AF92BF92CF92DF92EF92FF92B8
:101660000F931F93CF93DF937C01EB018AE0C82E89
:10167000D12CCB01B6010E94AE1A5C011AE0189F72
:10168000A001199F500D112449505C4E04E028E040
:1016900069E370E0C70105960E94910ACA30D1053E
:1016A0009CF0CE018A199B09B6010E94AE1A169FC2
:1016B000A001179F500D112449505C4E28E069E3AA
:1016C00070E0C7010E94910ADF91CF911F910F91A5
:1016D000FF90EF90DF90CF90BF90AF900895E4ED32
:1016E000F2E080E0A0E0B8E000800EBC8111012CA7
:1016F0001197A0FDFDCF0192B9F70DB40895909117
:101700004807982329F490914707982381E009F42A
:1017100080E008952FB7F89483E08093E9009091DA
:10172000E800892F807295FF04C09091F20080E458
:10173000891B2FBF089580E0E4EDF2E081118FEF67
:10174000002481938193819381930394D1F7EEE3F5
:10175000F7E0128A118A108A17860895FC01809199
:10176000D302882311F13FB7F89482E08093E90017
:101770002091F200822F90E01816190614F481E0EF
:1017800090E0882339F0289844E64093D2024091B3
:10179000F1004083222339F02091F200211103C08F
:1017A0002BE62093E8003FBF08958FEF9FEF089549
:1017B0008091CA0281110DC082E08093C60284E04C
:1017C0008093C7021092C9021092C80281E08093F0
:1017D000CA0286EC92E00895409167015091680139
:1017E000209165013091660142175307B4F490913E
:1017F000E8009570E1F39091E80092FD19C08093A4
:10180000F100809167019091680101968F7399278B
:10181000892B19F48EEF8093E800809167019091F5
:1018200068010196909368018093670181E00895B3
:1018300080E00895EF92FF920F931F93CF93DF9371
:10184000F82E192FE62E042F81E0860F880F0E94B4
:10185000EC0B83E00E94EC0BCF2DD12FEC0EFD2E74
:10186000F11CCE15DF05B9F007FF13C0FE0184910E
:101870000E94EC0B182F80E00E94EC0B8123219634
:101880008111EFCFDF91CF911F910F91FF90EF90DA
:1018900008958881EDCF81E0F5CFDF92EF92FF923E
:1018A0000F931F93CF93DF93D82E8A01EB017B0117
:1018B000E40EF51ECE15DF0559F0D7FE12C0FE016D
:1018C00084910E94EC0B21968111F4CF0FEF1FEF52
:1018D000C801DF91CF911F910F91FF90EF90DF90A2
:1018E00008958881EECF0F931F93CF93DF931F92BC
:1018F000CDB7DEB782E0898342E450E06CE276E067
:1019000080E80E944D0C0E94D80BDC0112960D91CC
:101910001C910115110589F0D801ED91FC9102800F
:10192000F381E02DBE016F5F7F4FC801099597FDE0
:1019300004C0F80100851185ECCF89810F90DF91FB
:10194000CF911F910F910895615030F02091F100D7
:10195000FC0120830196F8CF289884E68093D20278
:101960000895AF92BF92CF92DF92EF92FF920F93C2
:101970001F93CF93DF936C017B018B01040F151F25
:10198000EB015E01AE18BF08C017D10759F069918D
:10199000D601ED91FC910190F081E02DC6010995F1
:1019A000892B79F7C501DF91CF911F910F91FF909E
:1019B000EF90DF90CF90BF90AF900895CF93DF93DB
:1019C0001F92CDB7DEB76983DC01ED91FC910280F7
:1019D000F381E02D41E050E0BE016F5F7F4F09953C
:1019E0000F90DF91CF91089583E08093E90080917B
:1019F000F200882319F08AE38093E80008950E949A
:101A00008A0B90E00895CF93DF931F92CDB7DEB796
:101A1000FC018485958597FD08C02FEF3FEF358742
:101A200024870F90DF91CF910895CE0101960E94F7
:101A3000AE0B019719F4898190E0F3CF8FEF9FEF00
:101A4000F0CF0F931F93CF93DF931F92CDB7DEB7E5
:101A50008C01FC018485958597FF0BC0CE01019612
:101A60000E94AE0B019771F4898190E0F80195878F
:101A70008487F801848595850F90DF91CF911F9120
:101A80000F9108958FEF9FEFF1CFFC01848595852D
:101A900097FD0BC09FB7F89482E08093E900809196
:101AA000F2009FBF90E0019608959FB7F89482E0FE
:101AB0008093E9008091F2009FBF90E008953FB7C6
:101AC000F8948091610190916201A0916301B091BD
:101AD000640126B5A89B05C02F3F19F00196A11DF2
:101AE000B11D3FBFBA2FA92F982F8827BC01CD0168
:101AF000620F711D811D911D42E0660F771F881FC7
:101B0000991F4A95D1F708958F929F92AF92BF92F5
:101B1000CF92DF92EF92FF926B017C010E945F0DEA
:101B20004B015C01C114D104E104F104B9F00E943D
:101B30005F0D681979098A099B09683E7340810520
:101B4000910580F321E0C21AD108E108F10888EE7E
:101B5000880E83E0981EA11CB11CE4CFFF90EF908B
:101B6000DF90CF90BF90AF909F908F9008958F920D
:101B70009F92AF92BF92CF92DF92EF92FF920F931C
:101B80001F93CF93DF936C017B018A0180910B013E
:101B9000882309F45CC08091D302882309F457C0DC
:101BA00080916B0180FF05C08091E000826080938E
:101BB000E000E801B12C8AEFA82E93E0892E2AE3F9
:101BC000922E209711F4BB20D9F10E948A0B81112B
:101BD0000AC0AA94AA20D9F161E070E080E090E008
:101BE0000E94840DEECF8C171D0611F00CF08C2F87
:101BF0009FB7F8948092E9002091E80025FD02C08B
:101C00009FBFDFCF282F30E0C21BD30BF7018150DD
:101C100020F041914093F100FACFE20EF31EBB2079
:101C200021F09092E800B12CEBCF8091E80085FD87
:101C3000E7CF9092E800BB24B394209709F3F3CF49
:101C40005D9884E680936A01101611063CF081E0ED
:101C500090E0F6019383828310E000E0C801DF91F9
:101C6000CF911F910F91FF90EF90DF90CF90BF9099
:101C7000AF909F908F900895BC0190E080E00C940D
:101C8000840D20E191E061FD94E060FD990F62FD1B
:101C90009295687F269FD0011124A80FAC52BD4FAA
:101CA0008C9140FF03C0892B8C93089590958923D4
:101CB000FBCFDF92EF92FF920F931F93CF93DF93AF
:101CC0007C01D22E8B01040F111DEB0177FF02C0A6
:101CD000D0E0C0E0C8010134110514F080E490E0C8
:101CE000C817D9075CF480E8E816F10428F44D2DF4
:101CF000BE01C7010E94410E2196ECCFDF91CF912A
:101D00001F910F91FF90EF90DF900895EF92FF9257
:101D10000F931F93CF93DF937C018B01C42FD22F9E
:101D20006034710510F40E945A0AB8016D0F711DDC
:101D3000615071096034710520F44C2FC7010E9475
:101D40005A0A21E04D2FB801C7010E94590EC70160
:101D50008C0F911D21E04D2FB8010197DF91CF919C
:101D60001F910F91FF90EF900C94590E8F929F92BC
:101D7000AF92BF92CF92DF92EF92FF920F93CF93E9
:101D8000DF935B01EC014C01840E911C6B01C20ED0
:101D9000D11CC815D9050CF57501B7FE02C0F12C90
:101DA000E12CC60121E4C216D10414F080E490E0D5
:101DB000E816F90684F4C038D10548F480E4E81642
:101DC000F10428F4402FB701CE010E94410E2FEFFD
:101DD000E21AF20AE6CF2196DCCFDF91CF910F9184
:101DE000FF90EF90DF90CF90BF90AF909F908F903B
:101DF00008952F923F924F925F926F927F928F92AF
:101E00009F92AF92BF92CF92DF92EF92FF920F9389
:101E10001F93CF93DF93CDB7DEB728970FB6F89413
:101E2000DEBF0FBECDBF9E838D836A3061F5DC01BE
:101E300055968C91B8E08B9F90011124ED81FE8125
:101E400081899289820F931F928B818B108A1786CA
:101E500081E090E028960FB6F894DEBF0FBECDBFAC
:101E6000DF91CF911F910F91FF90EF90DF90CF9076
:101E7000BF90AF909F908F907F906F905F904F90AA
:101E80003F902F9008956D3019F32D813E81388752
:101E90002F83D9011F960D911C9150970038110581
:101EA0000CF07CC05196AD90BC90B0E4AB16B10480
:101EB0000CF074C0F901258825E0C801229E800D30
:101EC000911D1124181619060CF068C0622C712C93
:101ED000C30133E0880F991F3A95E1F78A0D9B1DE6
:101EE000181619060CF05AC0F489FB83AF81B88527
:101EF0005396BC91BC83629FB0011124FB01E45D49
:101F0000FE4F2F011982F2018491F981F53009F415
:101F100080E0450128E02A83A82FB0E0BE83AD838E
:101F20003C8080FF3B80311004C0BB81EC81BE1738
:101F3000F9F078018E2D801B8215D0F4D12CC12CA4
:101F4000C21490F4F0E8EF16F10450F4B601680DF5
:101F5000791D6034710520F4432DC7010E94410EA4
:101F60002FEFC21AD20AECCF3FEFE31AF30AE2CF07
:101F70008D819E81959587959A8191509A83860C43
:101F8000971C9111C9CFA981AF5FA983BFEF4B1AED
:101F90005B0A060D171DA63009F0B5CFEF81F88555
:101FA0002589422F50E087859089F6E02F9F800D8C
:101FB000911D1124AF81B88550969C938E931F97E5
:101FC00056962C915697222309F442CF6AEF640368
:101FD0009001659F300D112420583F4F2817390775
:101FE0000CF036CFED91FC9111970190F081E02D2E
:101FF0006AE0CD0109952CCF0895089590E080E026
:10200000089583E090E0909313018093120182E0A1
:1020100090E090933D0780933C0781E090E090939F
:102020000F0180930E011092BD021092BC0290939A
:102030000D0180930C011092C0021092BF0280919A
:10204000B6019091B70197FD01969595879590936C
:102050003B0280933A029C012F5F3F4F30933D0239
:1020600020933C02029690933F0280933E0280911F
:10207000B8019091B90197FD019695958795909338
:10208000BB018093BA019093BD018093BC019093F2
:10209000BF018093BE0110927601109277011092D9
:1020A000780108950F9309E020E84CEA50E068E3D6
:1020B00070E090E080E00E94910A6091BA02709115
:1020C000BB028DE190E00E942A0B6091100170919B
:1020D000110187E790E00F910C942A0B0F93609108
:1020E000710170917201660F771F660F771F8091E3
:1020F000730190917401880F991F880F991F209187
:102100007501222329F024E044E00F910C94860EFF
:1021100001E024E044E00E94B60E0F9108958F92F2
:102120009F92AF92BF92CF92DF92EF92FF920F9366
:10213000CF93DF93E0903C07F0903D07C701880FF5
:10214000991FFC01E65CFD4FC080D18086549E4FF4
:10215000FC01A080B180E701E2E08E2E912C8091FD
:102160001201909113019701281B390B2C173D0781
:10217000CCF59E01D7FF02C0205C3F4FA901440F60
:10218000551FFA01E65CFD4F8081918146545E4FF8
:10219000FA0160817181C816D90651F4A616B706F6
:1021A00039F4E216F30621F09092C5028092C4023F
:1021B000660F771F660F771F880F991F880F991F6B
:1021C0002A583E4FF9012081222331F024E044E0D7
:1021D0000E94860E2197C3CF01E024E044E00E94D4
:1021E000B60EF8CFDF91CF910F91FF90EF90DF9077
:1021F000CF90BF90AF909F908F9008950E94AA1C9F
:10220000CF92DF92EF92FF92C090B601D090B701CB
:102210000D2C000CEE08FF0882E0C816D104E10482
:10222000F1040CF45AC00E94A019A7019601215094
:102230003109410951090E94001ADC01CB010196C4
:10224000A11DB11D9093740180937301C090B801DA
:10225000D090B9010D2C000CEE08FF0882E0C816E2
:10226000D104E104F104F4F10E94A019A701960140
:1022700021503109410951090E94001ADC01CB01AA
:102280000196A11DB11D90937201809371010E946E
:10229000A01922E030E040E050E00E94001A21E066
:1022A000672B682B692B09F420E02093750120919E
:1022B000BA023091BB028EE190E0821B930B8A3010
:1022C000910514F48AE090E090931101809310013D
:1022D000FF90EF90DF90CF90089581E090E0A0E034
:1022E000B0E0B0CF81E090E0A0E0B0E0CCCF1F92B2
:1022F0000F920FB60F9211248F939F938091E1005C
:102300009091E100937F9093E10083FF0FC01092C2
:10231000E90091E09093EB001092EC0092E390932F
:10232000ED001092D30298E09093F00082FF22C05B
:1023300093E09093E9009091F200992319F09AE3C9
:102340009093E80090916A01992341F090916A017D
:10235000915090936A01911101C05D9A9091D202BF
:10236000992341F09091D20291509093D202911111
:1023700001C0289A84FF18C08091E2008E7E81609F
:102380008093E2008091E1008F7E8093E100809154
:102390006B018E7E806180936B019F918F910F9076
:1023A0000FBE0F901F90189580FFF7CF8091E2002D
:1023B0008E7E80618093E2008091E1008E7E80932A
:1023C000E10080916B018E7E8160E5CF1F920F92BC
:1023D0000FB60F921124CF92DF92EF92FF920F93DC
:1023E0001F932F933F934F935F936F937F938F939D
:1023F0009F93AF93BF93EF93FF93CF93DF93CDB7AB
:10240000DEB76C97DEBFCDBF1092E9008091E80087
:1024100083FF25C068E0CE0145960E94A40C82EFA0
:102420008093E8008D8987FF39C09091E80090FF84
:10243000FCCF982F907609F034C19E894F89588D32
:102440002F89F88C911131C0803861F580916C0131
:102450008093F1001092F1008EEF8093E8006C966B
:102460000FB6F894DEBF0FBECDBFDF91CF91FF91C5
:10247000EF91BF91AF919F918F917F916F915F91FC
:102480004F913F912F911F910F91FF90EF90DF900F
:10249000CF900F900FBE0F901F9018959EEF9093C6
:1024A000E800C7CF1092F100D5CF913059F48111D7
:1024B000D3CF4130510581F680916C018D7F80939F
:1024C0006C01CACF933049F48111C6CF4130510518
:1024D00019F680916C018260F2CF953041F48091C1
:1024E000E80080FFFCCF20682093E300B5CF963052
:1024F00009F0A9C00B8D1C8D22E01092E90010920A
:10250000680110926701F2122EC0109266011092BB
:1025100065010E94730C1F8299E09983FA8291E011
:102520009E8390EA98879AEF99872091670130916E
:102530006801275F3F4F3C832B838D831092E90016
:102540001092680110926701109366010093650173
:1025500049E050E0BE016F5F7F4F80E00E944D0C6C
:102560000E94730C79CF10936601009365010E945D
:10257000D80BDC0112960D911C910115110509F47F
:1025800051C1D801ED91FC910480F581E02DBE018F
:102590006B5E7F4FC8010995009709F03EC1F801B5
:1025A00000851185EACFF3E0FF120EC08F898823E2
:1025B00009F440C0823061F440E867E080E996E0C9
:1025C0000E941A0C811148CF81E28093EB0047CF23
:1025D000813029F440E86BE084E896E0F1CF833065
:1025E00099F70E94D80BDC011296ED90FC908E01B9
:1025F0000F5F1F4F6801E114F10479F0D701ED91ED
:10260000FC910680F781E02DB801C7010995080FFC
:10261000111DF701E084F184EECFD8011C92F60180
:1026200001900020E9F73197BF016C197D0940E066
:10263000C601C6CF6EE676E0FB01449150E080E82B
:102640000E944D0C09CF973009F4BECF983021F489
:1026500081E08093F10000CF993009F0FDCE8370C6
:1026600009F0B2CFEFE1F1E081E031E096E32191B2
:10267000222371F08093E9003093EB00DF01119782
:102680002C912093EC009093ED008F5F873079F7C9
:102690008EE78093EA001092EA008F898093D3023C
:1026A000DBCE8B8D9C8D1092E90010926801109208
:1026B00067019093660180936501898D811192C0B5
:1026C0008E899D89913A49F4813209F07DCF47E0A6
:1026D00050E064E071E080E0B3CF913209F074CF54
:1026E000833269F48F89988DB0E0A0E08093000177
:1026F00090930101A0930201B0930301ADCE80320B
:1027000069F48091E80082FFFCCF67E084E091E00B
:102710000E94A40C8BEF8093E8009ECE823209F0D9
:102720009BCE8F8980930B01EEEFFFE7859194910B
:102730008B3F9C4D51F1E0E0F8E0809104019091D5
:102740000501A0910601B0910701803B9440A105CD
:10275000B105F1F480910B0180FD1AC0EE3F8AE0D3
:10276000F80789F587E797E7918380838091600078
:102770008093690188E19BE00FB6F894A895809357
:1027800060000FBE9093600067CEEEEFFAE0D5CF09
:10279000808191818737974709F05ECEA895809117
:1027A000600088618093600080916901809360007F
:1027B000EE3F2AE0F20789F08091FE0A9091FF0A2D
:1027C0009183808349CE808191818737980751F228
:1027D0009093FF0A8093FE0AC5CF1092FF0A1092D1
:1027E000FE0A3ACE0E94D80BDC0112960D911C9184
:1027F0000115110509F4E8CED801ED91FC91019085
:10280000F081E02DBE016B5E7F4FC80109958111FB
:1028100023CEF80100851185EBCF181619060CF4AC
:102820001BCED2CEF1E0FF12BECE62E776E004CF3F
:102830001F920F920FB60F9211242F933F938F93F5
:102840009F93AF93BF9380916D0190916E01A09182
:102850006F01B09170013091600123E0230F2D379B
:1028600058F50196A11DB11D2093600180936D0163
:1028700090936E01A0936F01B093700180916101FC
:1028800090916201A0916301B09164010196A11D34
:10289000B11D8093610190936201A0936301B09395
:1028A0006401BF91AF919F918F913F912F910F90B4
:1028B0000FBE0F901F90189526E8230F0296A11DBA
:1028C000B11DD2CFEF92FF920F931F93CF93DF935F
:1028D000EC017B01198218821B821A821D821C82E4
:1028E000FB0101900020E9F731978F01061B170BC0
:1028F000B8016F5F7F4F90E080E00E94ED1B009772
:10290000B9F0998388831B830A832C813D81232B13
:1029100011F4FC0110821D830C83B7018881998119
:10292000DF91CF911F910F91FF90EF900C94B81C05
:1029300088819981009711F00E94641B1982188286
:102940001D821C821B821A82DF91CF911F910F91F1
:10295000FF90EF900895E4EDF6E01382128288EE86
:1029600093E0A0E0B0E084839583A683B78389E2F7
:1029700091E0918380838FEF9FEF95878487EEE3CB
:10298000F7E0138212821186128680E18387108617
:10299000178215868BE391E09183808389E491E02F
:1029A00095838483108A1786128A118A81E0838B2B
:1029B000148A858B168A80911201909113010197D8
:1029C00090933D0780933C076BE471E084E297E0CD
:1029D0000E94621460E571E08AE297E00E9462144E
:1029E00069E571E080E397E00E94621468E571E0B8
:1029F00086E397E00C946214789484B5826084BD79
:102A000084B5816084BD85B5826085BD85B58160F2
:102A100085BD80916E00816080936E001092810070
:102A2000809181008260809381008091810081602B
:102A300080938100809180008160809380008091EC
:102A400091008260809391008091910081608093D9
:102A50009100809190008160809390008091C100EE
:102A600084608093C1008091C10082608093C10026
:102A70008091C10081608093C1008091C30081601A
:102A80008093C3008091C00082608093C0008091D9
:102A9000C20081608093C20080917A00846080933C
:102AA0007A0080917A00826080937A0080917A0027
:102AB000816080937A0080917A00806880937A00A8
:102AC0001092D30210926C0110926B018091D7008A
:102AD00081608093D70080EA8093D80089B58061B7
:102AE00089BD89B5826089BD09B400FEFDCF61E072
:102AF00070E080E090E00E94840D8091D8008F7C8F
:102B000080618093D8008091E000807F8093E00016
:102B10008091E1008E7E8093E1008DE08093E20061
:102B2000559A209A81EC80937C0085B1806F85B99D
:102B300084B1877E84B984B1876E84B95E9A5F98C8
:102B40008AB1806D8AB9769A6E9881B3806F81BBA5
:102B5000899880B38D7080BB80E58CBD81E08DBD90
:102B600085E090E00E943C0E5F9A85E090E00E9434
:102B70003C0E5E985C98E8E9F6E085EA96E02491E0
:102B80002EBD00000DB407FEFDCF31968E179F07B6
:102B9000B1F75C9A81E88093640080916500816060
:102BA0008093650080E094E01EBC00000DB407FE39
:102BB000FDCF0197C9F781E28093490780916400B6
:102BC0008E7F8093640080917A00806480937A0085
:102BD00080917A0086FDFCCFC0917800D091790079
:102BE0000E945F0DAB01BC01CE01B0E0A0E0DC01B2
:102BF000992788278C019D01040F151F261F371F59
:102C0000C901B8012091640021602093640061151E
:102C100071058105910511F00E94EF190E946F0B5B
:102C20008FEF9FEF9093E1068093E0068FE190E0B5
:102C30009093B7018093B6018DE090E09093B90135
:102C40008093B8010E9401100E94001155245394F2
:102C500032E0C32ED12CAA24A394B12C50E0252E0F
:102C600050E0352E4424439464E0662E712C8FB7D7
:102C7000F89440916D0150916E0160916F017091D7
:102C800070018FBF80914A07142F181B812F9091DC
:102C90004B07992351F010934C0710924B072114C6
:102CA000310429F30E940000E2CF909149071917DF
:102CB00038F48F5F891798F753BE889513BEEFCF0E
:102CC00040924B0740934A078091450790914607F1
:102CD000019690934607809345078091470780931C
:102CE00048078FB18095807F669B88601C9B8460BD
:102CF000809347078091C4029091C502813091056D
:102D000009F484C08230910509F4F6C0892B09F0DA
:102D10001DC180E80E947F0B882359F08091C10279
:102D20009091C2029601281B390B3093C202209366
:102D3000C10280E10E947F0B882359F08091C1027B
:102D40009091C202F601E81BF90BF093C202E093E6
:102D5000C10280E20E947F0B882349F08091C1026A
:102D60009091C20201979093C2028093C10280E4C5
:102D70000E947F0B882349F08091C1029091C2028A
:102D800001969093C2028093C1028091C1029091FA
:102D9000C202039663E070E00E94AE1AEC019093C9
:102DA000C2028093C10288E00E947F0B882309F44D
:102DB000E6C0C130D105F1F0C230D10511F1CD2B03
:102DC00031F401E010E01093C5020093C402809139
:102DD000C4029091C5028230910509F4F2C10CF051
:102DE000C0C0009709F4CBC0019709F402C10E944A
:102DF0006F0B55CF23E030E03093C5022093C4021F
:102E0000E6CF7092C5026092C402E1CFC091C302C6
:102E1000C11168C080E80E947F0B8823A1F08091D7
:102E2000BF029091C002892B71F410920F01109291
:102E30000E018091BE0290E0880F991F0197909338
:102E4000BD028093BC0280E10E947F0B8823B1F019
:102E50008091BF029091C002892B81F410920F01E2
:102E600010920E018091BE0290E0880F991FF5012B
:102E7000E81BF90BF093BD02E093BC0280E20E94D4
:102E80007F0B8823A1F080910C0190910D01892B7B
:102E900071F48091BE0290E0880F991F0197909382
:102EA0000F0180930E011092BD021092BC0280E4CB
:102EB0000E947F0B8823B1F080910C0190910D014D
:102EC000892B81F48091BE0290E0880F991F8501C3
:102ED000081B190B10930F0100930E011092BD02F5
:102EE0001092BC0288E00E947F0B882309F46FCF08
:102EF000C525C093C3026BCF88E00E947F0B882357
:102F000071F01092C5021092C4021092BB0210928E
:102F1000BA021092BE020E9401100E94001184E0C9
:102F20000E947F0B882309F452CF0E949B0B0E94C2
:102F30008F100E946E100E94521040E054E064ED29
:102F400072E084ED96E00E94B70D41CF84E00E94CC
:102F50007F0B882309F43BCF1092C5021092C40264
:102F600036CF8330910509F43EC1049709F03FCF75
:102F70000E949B0B00E420E845EA56E03AC10E941B
:102F80009B0B00E420E847EF5FE070E060E090E03A
:102F900080E00E94910AA4E2EA2EA7E0FA2EB1E1B5
:102FA0008B2E912CD0E0C0E0F70184819581F5E073
:102FB000F89F8001F99F100D11248091C10290911A
:102FC000C2028C179D0749F42AE043E0400F6BE2F0
:102FD00070E0C40102970E94860E0B5F1F4F800EA7
:102FE000911E219606E0E00EF11CC330D105E1F6FA
:102FF000FECE8091C3028823A1F000E020E149E2E7
:1030000068E170E08CE290E00E94B60E00E129E2F7
:1030100045EA5FE068E170E08CE290E00E94910A8E
:10302000E6CE80914507909146076EE170E00E94E0
:103030009A1A892B49F480911001909111010197FE
:1030400090931101809310018091100190911101D2
:10305000892B41F40E94521022E030E03093C502E7
:103060002093C40280914507909146078370992769
:10307000892B09F0BCCE80913C0790913D079C01C3
:103080002F5F3F4F203431050CF085C030933D0752
:1030900020933C0760910E0170910F01880F991FDA
:1030A000FC01E65CFD4F40815181460F571F209186
:1030B000BC023091BD0286549E4FFC0180819181FB
:1030C000820F931F70930D0160930C013093C00227
:1030D0002093BF026091B8017091B9012091B601AF
:1030E0003091B701E091BE0297FF5AC08901041BDD
:1030F000150BA801E525E093BE02CB0157FD05C0E5
:10310000241735070CF45AC09A0140913C0750919E
:103110003D07BA01660F771FFB01E65CFD4F318367
:10312000208366547E4FFB01918380836091BE02B1
:103130004A585E4FFA01608340917501641322C0C2
:10314000409173015091740124173507D9F42091EF
:1031500071013091720182179307A1F480911201DD
:1031600090911301019690931301809312010E9494
:1031700000118091BA029091BB0201969093BB021C
:103180008093BA020E949B0B0E948F100E946E10C7
:103190000E9452102CCE10923D0710923C077ACF1D
:1031A000681779070CF0AACFC901841B950BAC01F5
:1031B000E525E093BE0290E080E0A0CF30E020E083
:1031C000A4CF00E020E240E460E170E080E290E023
:1031D0000E94B60E00E220E445EA5EE060E170E0A5
:1031E00080E290E01BCF0E949B0B00E420E845EAC0
:1031F0005AE070E060E090E080E010CF0F931F9302
:10320000CF93DF938C0181E090E00E94F81980FF5A
:1032100031C08AE090E00E94F8199FEF980F9E3F1E
:1032200048F522E330E0D80150963C932E931F9747
:1032300028E330E052963C932E935197CBE0D0E0B8
:10324000D801ED91FC910190F081E02D682FC8012B
:103250000995CE010E94F8192196C131D10581F757
:103260000E946F0B88EE93E0DF91CF911F910F9139
:103270000C943C0EDF91CF911F910F91089504970C
:103280000C94FE18CF93DF93CCE3D7E02697888188
:103290009981009711F00E94641B87E0C432D8071F
:1032A000A9F7DF91CF9108958F929F92AF92BF922D
:1032B000CF92DF92EF92FF92CF93DF93EC01688180
:1032C00079818A819B81611571058105910521F4C0
:1032D00064E279ED8BE597E02DE133EF41E050E0DA
:1032E0000E94001A49015A019B01AC01A7EAB1E40E
:1032F0000E941F1A6B017C01ACEEB4EFA501940192
:103300000E942D1AC60ED71EE81EF91EF7FE06C033
:1033100081E0C81AD108E10880E8F80AC882D98299
:10332000EA82FB82C701B6019F77DF91CF91FF90C0
:10333000EF90DF90CF90BF90AF909F908F900895C7
:103340008F929F92AF92BF92CF92DF92EF92FF92B5
:1033500060911401709115018091160190911701EF
:10336000611571058105910521F464E279ED8BE524
:1033700097E02DE133EF41E050E00E94001A49014F
:103380005A019B01AC01A7EAB1E40E941F1A6B012C
:103390007C01ACEEB4EFA50194010E942D1AC60E7B
:1033A000D71EE81EF91EF7FE06C081E0C81AD10834
:1033B000E10880E8F80AC0921401D0921501E09269
:1033C0001601F0921701C701B6019F77FF90EF90A9
:1033D000DF90CF90BF90AF909F908F9008956093B3
:1033E00014017093150180931601909317010895AD
:1033F000F999FECF92BD81BDF89A992780B50895BD
:10340000052E97FB1EF400940E94171A57FD07D053
:103410000E94691A07FC03D04EF40C94171A5095B9
:103420004095309521953F4F4F4F5F4F08959095B0
:103430008095709561957F4F8F4F9F4F08950E94A3
:103440008B1AA59F900DB49F900DA49F800D911D88
:1034500011240895B7FF0C941F1A0E941F1A821B93
:10346000930B08952F923F924F925F926F927F92AB
:103470008F929F92AF92BF92CF92DF92EF92FF9284
:103480000F931F93CF93DF93CDB7DEB7CA1BDB0B30
:103490000FB6F894DEBF0FBECDBF09942A883988D5
:1034A00048885F846E847D848C849B84AA84B984DC
:1034B000C884DF80EE80FD800C811B81AA81B981E8
:1034C000CE0FD11D0FB6F894DEBF0FBECDBFED01FC
:1034D0000895A1E21A2EAA1BBB1BFD010DC0AA1F55
:1034E000BB1FEE1FFF1FA217B307E407F50720F06D
:1034F000A21BB30BE40BF50B661F771F881F991FE8
:103500001A9469F760957095809590959B01AC0130
:10351000BD01CF010895A29FB001B39FC001A39F39
:10352000700D811D1124911DB29F700D811D1124FC
:10353000911D0895AA1BBB1B51E107C0AA1FBB1F09
:10354000A617B70710F0A61BB70B881F991F5A952F
:10355000A9F780959095BC01CD01089597FB072EA2
:1035600016F4009407D077FD09D00E949A1A07FC40
:1035700005D03EF4909581959F4F08957095619583
:103580007F4F0895EE0FFF1F0590F491E02D0994F1
:103590000F931F93CF93DF938230910510F482E055
:1035A00090E0E0915707F091580730E020E0B0E05C
:1035B000A0E0309799F42115310509F44AC0281B81
:1035C000390B24303105D8F58A819B81611571054D
:1035D00089F1FB0193838283FE0111C040815181F7
:1035E0000281138148175907E0F04817590799F4E9
:1035F000109761F012960C93129713961C933296C3
:10360000CF01DF91CF911F910F910895009357073C
:1036100010935807F4CF2115310551F04217530785
:1036200038F0A901DB019A01BD01DF01F801C1CF2A
:10363000EF01F9CF9093580780935707CDCFFE0144
:10364000E20FF31F8193919322503109398328832C
:10365000D7CF2091550730915607232B41F4209165
:103660001A0130911B013093560720935507209182
:103670001801309119012115310541F42DB73EB7DC
:1036800040911C0150911D01241B350BE091550701
:10369000F0915607E217F307A0F42E1B3F0B2817F3
:1036A000390778F0AC014E5F5F4F2417350748F0BB
:1036B0004E0F5F1F50935607409355078193919388
:1036C0009FCFF0E0E0E09CCFCF93DF930097E9F04D
:1036D000FC01329713821282A0915707B0915807CC
:1036E000ED0130E020E01097A1F420813181820FBC
:1036F000931F20915507309156072817390709F075
:1037000061C0F0935607E0935507DF91CF9108957C
:10371000EA01CE17DF07E8F54A815B819E0141157A
:103720005105B1F7E901FB83EA8349915991C40F2F
:10373000D51FEC17FD0761F4808191810296840FFB
:10374000951FE90199838883828193819B838A8372
:10375000F0E0E0E012968D919C9113970097B9F5F7
:103760002D913C911197CD010296820F931F2091CC
:103770005507309156072817390739F6309751F514
:103780001092580710925707B0935607A093550709
:10379000BCCFD383C28340815181840F951FC8174A
:1037A000D90761F44E5F5F4F88819981480F591F97
:1037B000518340838A819B819383828321153105C4
:1037C00009F0B0CFF0935807E09357079ECFFD0163
:1037D000DC01C0CF13821282D7CFB0E0A0E0E3EFCC
:1037E000FBE10C94341A8C01009751F4CB010E9438
:1037F000C81A8C01C801CDB7DEB7E0E10C94501AAD
:10380000FC01E60FF71F9C0122503109E217F30774
:1038100008F49DC0D901CD91DC911197C617D70747
:1038200098F0C530D10530F3CE010497861797077D
:1038300008F3C61BD70B2297C193D1936D937C934A
:10384000CF010E94641BD6CF5B01AC1ABD0A4C01AC
:103850008C0E9D1EA0915707B0915807512C412CFA
:10386000F12CE12C109731F5809155079091560776
:103870008815990509F05CC04616570608F058C02F
:103880008091180190911901009741F48DB79EB76E
:1038900040911C0150911D01841B950BE817F907FD
:1038A00008F055C0F0935607E0935507F90171836E
:1038B0006083A0CF8D919C91119712966C90129776
:1038C00013967C901397A815B90559F56C0142E041
:1038D000C40ED11CCA14DB0420F1AC014A195B09E7
:1038E000DA011296159780F06282738251834083C9
:1038F000D9016D937C93E114F10471F0D701139613
:10390000FC93EE93129776CF22968C0F9D1FF901B0
:1039100091838083F301EFCFF0935807E09357072B
:1039200069CF4816590608F42C017D01D3019ACFBE
:10393000CB010E94C81A7C01009749F0AE01B80182
:103940000E94AF1CC8010E94641B870153CF10E086
:1039500000E050CF81E090E0F8940C94BF1CFB0194
:10396000DC0102C001900D9241505040D8F70895FB
:10397000FB01DC0101900D920020E1F708951AE0AF
:10398000CFE2DAE004C0FE010E94C21A2196C033E1
:08399000D107C9F7F894FFCF3D
:10399800FFFFFFFF00E10000000000000100010040
:1039A8001E0003000100000000005907800000C14C
:1039B800808100000000000000DE0CB70DFF0CF451
:1039C8000C450D030D210D00000000F90EB10CFE91
:1039D8000FFD0FFE18FCFF00003F19504C41590025
:1039E800434F4E54524F4C530041424F55540000E0
:00000001FF
